:100000000C9434000C943E000C943E000C943E0082
:100010000C943E000C943E000C943E000C943E0068
:100020000C943E000C943E000C943E000C943E0058
:100030000C943E000C943E000C943E000C943E0048
:100040000C943E000C943E000C943E000C943E0038
:100050000C943E000C9440000C943E000C943E0026
:100060000C943E000C943E0011241FBECFEFD8E04C
:10007000DEBFCDBF0E945B000C9487000C94000093
:100080001F920F920FB60F9211248F93EF93FF934D
:10009000809178008BB98091790085B9EAE7F0E02A
:1000A000808180648083FF91EF918F910F900FBECC
:1000B0000F901F9018958FEF8AB98FE384B9EAE704
:1000C000F0E0808180688083808187608083808188
:1000D0008062808310927B00ACE7B0E08C918C93BF
:1000E0008C9180648C938C918C93808180648083CC
:1000F000808188608083E1ECF0E01082108217B884
:100100007894EAE7F0E0808180648083FFCFF89400
:02011000FFCF1F
:00000001FF
