S01B0000416E616C6F67526561644869676853706565642E73726563CA
S11300000C9434000C943E000C943E000C943E007E
S11300100C943E000C943E000C943E000C943E0064
S11300200C943E000C943E000C943E000C943E0054
S11300300C943E000C943E000C943E000C943E0044
S11300400C943E000C943E000C943E000C943E0034
S11300500C943E000C943E000C943E000C943E0024
S11300600C943E000C943E0011241FBECFEFD8E048
S1130070DEBFCDBF0E9440000C9461000C940000D0
S11300808FE384B9EAE7F0E080818068808380812F
S113009087608083ACE7B0E08C9180628C93808130
S11300A08062808310927B008C9180648C938C910D
S11300B08C93808180648083E9E7F0E0808185B956
S10900C0FDCFF894FFCF10
S9030000FC
