:100000000C9434000C943E000C943E000C943E0082
:100010000C943E000C943E000C943E000C943E0068
:100020000C943E000C943E000C943E000C943E0058
:100030000C943E000C943E000C943E000C943E0048
:100040000C943E000C943E000C943E000C943E0038
:100050000C943E000C943E000C943E000C943E0028
:100060000C943E000C943E0011241FBECFEFD8E04C
:10007000DEBFCDBF0E9440000C9476000C940000BF
:100080008CEF8AB98FE384B9EAE7F0E08081806879
:100090008083808187608083ACE7B0E08C91806250
:1000A0008C9380818062808310927B008C918C93F2
:1000B0008C918C938081806480831092C100AAE728
:1000C000B0E0E9E7F0E0C8E7D0E08C9180648C9381
:1000D00080818695869585B9808198818370880F07
:1000E000880F890F8295807F8BB9EFCFF894FFCF6F
:00000001FF
