:100000000C9434000C943E000C943E000C943E0082
:100010000C943E000C943E000C943E000C943E0068
:100020000C943E000C943E000C943E000C943E0058
:100030000C943E000C943E000C943E000C943E0048
:100040000C943E000C943E000C943E000C943E0038
:100050000C943E000C943E000C943E000C943E0028
:100060000C943E000C943E0011241FBECFEFD8E04C
:10007000DEBFCDBF0E9440000C9467000C940000CE
:100080008FE384B9EAE7F0E0808180688083808133
:1000900087608083ACE7B0E08C9180628C93808134
:1000A0008062808310927B008C9180648C938C9111
:1000B0008C93808180648083808180648083789445
:1000C0008081886080838FB7880F85B9F5CFF894D9
:0200D000FFCF60
:00000001FF
