:100000000C9434000C943E000C943E000C943E0082
:100010000C943E000C943E000C943E000C943E0068
:100020000C943E000C943E000C943E000C943E0058
:100030000C943E000C943E000C943E000C943E0048
:100040000C943E000C943E000C943E000C943E0038
:100050000C943E000C943E000C943E000C943E0028
:100060000C943E000C943E0011241FBECFEFD8E04C
:10007000DEBFCDBF0E9440000C946F000C940000C6
:100080008FEF8AB98FE384B9EAE7F0E08081806876
:100090008083808187608083ACE7B0E08C918C9313
:1000A00080818062808310927B008C9180648C932D
:1000B0008C918C93808180648083E1ECF0E01082ED
:1000C0001082EAE7F0E0C8E7D0E0A9E7B0E080817D
:1000D0008064808388818BB98C9185B9F8CFF8943E
:0200E000FFCF50
:00000001FF
